:10000000002000100D0300000103000003030000A6
:1000100000000000000000000000000000000000E0
:1000200000000000000000000000000005030000C8
:10003000000000000000000007030000C5030000EE
:100040008D0300008D0300008D0300008D03000070
:100050008D0300008D0300008D0300008D03000060
:100060008D0300008D0300008D0300008D03000050
:100070008D030000090300000903000009030000CC
:100080000106000039060000090300000903000012
:100090000903000009030000000000000000000048
:1000A000090300000903000009030000000000002C
:1000B0000903000009030000090300000903000010
:1000C000FFFFFFFFFFFFFFFFFFFFFFFFFFFFFFFF40
:1000D000FFFFFFFFFFFFFFFFFFFFFFFFFFFFFFFF30
:1000E000FFFFFFFFFFFFFFFFFFFFFFFFFFFFFFFF20
:10030000FEE7FEE7FEE7FEE7FEE70000002208B595
:100310000A4B0B49D3188B4204D20A49895C01323B
:100320001970F5E7084B094A934203D200221A706C
:100330000133F8E700F09CF9FEE7C046000000102A
:1003400000000010F2060000000000101400001071
:100350002023952010B504240949CB63094B1A1DAD
:10036000D0670948026922430261022201201A670C
:1003700000225A6758675A671A67486030BF10BD35
:1003800000C000400080044000ED00E00122002198
:10039000084B04205A67084AD16382220131FF3199
:1003A0009200995005491B180A6982430A61044A60
:1003B000DA6770470080044000C0004000ED00E0B4
:1003C000DF000100704700000022064B9A60002801
:1003D00006D01A68D20301D430BFFAE70138F6E735
:1003E0007047C04610E000E0F8B5184D29680029B4
:1003F00029D13F22164B174F5A628022FB6F1202FF
:1004000013430222FB67144B144C1A600123144A55
:100410006420116013601160124A1360124A626016
:100420002360A933A360553BA360FFF7CDFF0F48BE
:10043000E668FFF7C9FFE2680D4BF96FB61A0B408B
:10044000B600FB672E602868F8BDC04600000010AB
:100450000080044004800440D080044000400040FC
:10046000D4800440D8800440FFFFFF001027000024
:10047000FF7FFFFF1B4B1C4A70B507215A6000220B
:100480009A6019608E230225184C9B00E158043BAA
:10049000E150174E1749043BE1507560F260FFF7D9
:1004A000A3FF154B1549584300F0E9F806233F21F7
:1004B000134A7938B0617361136E8B432B43136613
:1004C0008023C231FF3162585B001A43625082229E
:1004D0009200A350043162581A436250094A1360D3
:1004E00070BDC04610E000E0DF2E00000080044038
:1004F00000C00040BF180000881300001027000053
:100500000040044000E100E030B58023A025224AED
:10051000224C234823491B02ED05EA50E250C25009
:10052000CA500122204BEA500022E250C250CA5069
:100530001E4BC032191C08311A609A601A615A6148
:10054000DA611A625A629A62DA621A635A639A63C9
:10055000DA631A645A649A64DA641A655A659A65A9
:10056000DA651A665A66DA661A67CA6780310A60FF
:100570004A60CA600A614A618A61CA610A624A6263
:100580000132191D5A679A67DA67CA67DA609A6694
:1005900090331A6030BDC046FF0F000000000150CC
:1005A0000000025000000350FC3F000000400440E7
:1005B0008E230D490D4A9B0010B5D1500C4A0D4BAE
:1005C000DA67FFF7A1FFFFF755FF0B48FFF7FCFEC7
:1005D00080230A4C08482380FFF7F6FE002323807F
:1005E000FFF7B6FEF1E7C046B8ED0000008004401A
:1005F000DF00010004800440881300000002005066
:1006000001220A4B1968114204D009491A600A688C
:1006100001320A601A6810231A4205D0034A136097
:10062000044A1368013313607047C04600C000409D
:10063000040000100800001001220A4B1968114242
:1006400004D009491A600A6801320A601A68102346
:100650001A4205D0034A1360044A13680133136039
:100660007047C046000001400C0000101000001050
:1006700008B5FFF79DFF08BD03000B4321D40029F7
:1006800031D00122D207030901E009011209994280
:10069000FBD9430801E0490052089942FBD900E028
:1006A0004908401A07D35241FAD301461046704711
:1006B00049084018F7D29218FAD34018014610465C
:1006C0007047CB0F00D04942021000D54042534042
:1006D00008B5FFF7D4FF0CBC521000D34042002AEB
:1006E00000D549421847F446002000F001F8604761
:0206F000704751
:040000030000030DE9
:00000001FF
